{
  "_format": "hh-sol-artifact-1",
  "contractName": "SimpleStorage",
  "sourceName": "contracts/SimpleStorage.sol",
  "abi": [
    {
      "inputs": [
        {
          "internalType": "string",
          "name": "_id",
          "type": "string"
        },
        {
          "internalType": "string",
          "name": "_name",
          "type": "string"
        },
        {
          "internalType": "uint256",
          "name": "_favoriteNumber",
          "type": "uint256"
        }
      ],
      "name": "addPerson",
      "outputs": [],
      "stateMutability": "nonpayable",
      "type": "function"
    },
    {
      "inputs": [
        {
          "internalType": "string",
          "name": "",
          "type": "string"
        },
        {
          "internalType": "string",
          "name": "",
          "type": "string"
        }
      ],
      "name": "favoriteNumberByNameAndId",
      "outputs": [
        {
          "internalType": "uint256",
          "name": "",
          "type": "uint256"
        }
      ],
      "stateMutability": "view",
      "type": "function"
    },
    {
      "inputs": [
        {
          "internalType": "uint256",
          "name": "",
          "type": "uint256"
        }
      ],
      "name": "people",
      "outputs": [
        {
          "internalType": "string",
          "name": "id",
          "type": "string"
        },
        {
          "internalType": "uint256",
          "name": "favoriteNumber",
          "type": "uint256"
        },
        {
          "internalType": "string",
          "name": "name",
          "type": "string"
        }
      ],
      "stateMutability": "view",
      "type": "function"
    },
    {
      "inputs": [
        {
          "internalType": "string",
          "name": "_name",
          "type": "string"
        },
        {
          "internalType": "string",
          "name": "_id",
          "type": "string"
        }
      ],
      "name": "retrieve",
      "outputs": [
        {
          "internalType": "uint256",
          "name": "",
          "type": "uint256"
        }
      ],
      "stateMutability": "view",
      "type": "function"
    }
  ],
  "bytecode": "0x608060405234801561001057600080fd5b50610ab6806100206000396000f3fe608060405234801561001057600080fd5b506004361061004c5760003560e01c806329bc3e60146100515780634847e01b146100815780639e7a13ad1461009d578063d112a50e146100cf575b600080fd5b61006b600480360381019061006691906104fb565b6100ff565b604051610078919061058c565b60405180910390f35b61009b600480360381019061009691906105d3565b610150565b005b6100b760048036038101906100b2919061065e565b610212565b6040516100c69392919061070a565b60405180910390f35b6100e960048036038101906100e491906104fb565b61035c565b6040516100f6919061058c565b60405180910390f35b60018280516020810182018051848252602083016020850120818352809550505050505081805160208101820180518482526020830160208501208183528095505050505050600091509150505481565b6000604051806060016040528085815260200183815260200184815250908060018154018082558091505060019003906000526020600020906003020160009091909190915060008201518160000190816101ab919061095b565b506020820151816001015560408201518160020190816101cb919061095b565b505050806001836040516101df9190610a69565b9081526020016040518091039020846040516101fb9190610a69565b908152602001604051809103902081905550505050565b6000818154811061022257600080fd5b90600052602060002090600302016000915090508060000180546102459061077e565b80601f01602080910402602001604051908101604052809291908181526020018280546102719061077e565b80156102be5780601f10610293576101008083540402835291602001916102be565b820191906000526020600020905b8154815290600101906020018083116102a157829003601f168201915b5050505050908060010154908060020180546102d99061077e565b80601f01602080910402602001604051908101604052809291908181526020018280546103059061077e565b80156103525780601f1061032757610100808354040283529160200191610352565b820191906000526020600020905b81548152906001019060200180831161033557829003601f168201915b5050505050905083565b600060018360405161036e9190610a69565b90815260200160405180910390208260405161038a9190610a69565b908152602001604051809103902054905092915050565b6000604051905090565b600080fd5b600080fd5b600080fd5b600080fd5b6000601f19601f8301169050919050565b7f4e487b7100000000000000000000000000000000000000000000000000000000600052604160045260246000fd5b610408826103bf565b810181811067ffffffffffffffff82111715610427576104266103d0565b5b80604052505050565b600061043a6103a1565b905061044682826103ff565b919050565b600067ffffffffffffffff821115610466576104656103d0565b5b61046f826103bf565b9050602081019050919050565b82818337600083830152505050565b600061049e6104998461044b565b610430565b9050828152602081018484840111156104ba576104b96103ba565b5b6104c584828561047c565b509392505050565b600082601f8301126104e2576104e16103b5565b5b81356104f284826020860161048b565b91505092915050565b60008060408385031215610512576105116103ab565b5b600083013567ffffffffffffffff8111156105305761052f6103b0565b5b61053c858286016104cd565b925050602083013567ffffffffffffffff81111561055d5761055c6103b0565b5b610569858286016104cd565b9150509250929050565b6000819050919050565b61058681610573565b82525050565b60006020820190506105a1600083018461057d565b92915050565b6105b081610573565b81146105bb57600080fd5b50565b6000813590506105cd816105a7565b92915050565b6000806000606084860312156105ec576105eb6103ab565b5b600084013567ffffffffffffffff81111561060a576106096103b0565b5b610616868287016104cd565b935050602084013567ffffffffffffffff811115610637576106366103b0565b5b610643868287016104cd565b9250506040610654868287016105be565b9150509250925092565b600060208284031215610674576106736103ab565b5b6000610682848285016105be565b91505092915050565b600081519050919050565b600082825260208201905092915050565b60005b838110156106c55780820151818401526020810190506106aa565b60008484015250505050565b60006106dc8261068b565b6106e68185610696565b93506106f68185602086016106a7565b6106ff816103bf565b840191505092915050565b6000606082019050818103600083015261072481866106d1565b9050610733602083018561057d565b818103604083015261074581846106d1565b9050949350505050565b7f4e487b7100000000000000000000000000000000000000000000000000000000600052602260045260246000fd5b6000600282049050600182168061079657607f821691505b6020821081036107a9576107a861074f565b5b50919050565b60008190508160005260206000209050919050565b60006020601f8301049050919050565b600082821b905092915050565b6000600883026108117fffffffffffffffffffffffffffffffffffffffffffffffffffffffffffffffff826107d4565b61081b86836107d4565b95508019841693508086168417925050509392505050565b6000819050919050565b600061085861085361084e84610573565b610833565b610573565b9050919050565b6000819050919050565b6108728361083d565b61088661087e8261085f565b8484546107e1565b825550505050565b600090565b61089b61088e565b6108a6818484610869565b505050565b5b818110156108ca576108bf600082610893565b6001810190506108ac565b5050565b601f82111561090f576108e0816107af565b6108e9846107c4565b810160208510156108f8578190505b61090c610904856107c4565b8301826108ab565b50505b505050565b600082821c905092915050565b600061093260001984600802610914565b1980831691505092915050565b600061094b8383610921565b9150826002028217905092915050565b6109648261068b565b67ffffffffffffffff81111561097d5761097c6103d0565b5b610987825461077e565b6109928282856108ce565b600060209050601f8311600181146109c557600084156109b3578287015190505b6109bd858261093f565b865550610a25565b601f1984166109d3866107af565b60005b828110156109fb578489015182556001820191506020850194506020810190506109d6565b86831015610a185784890151610a14601f891682610921565b8355505b6001600288020188555050505b505050505050565b600081905092915050565b6000610a438261068b565b610a4d8185610a2d565b9350610a5d8185602086016106a7565b80840191505092915050565b6000610a758284610a38565b91508190509291505056fea264697066735822122021a5080f9f0d5672b75a94d83c93cc6c8af5fd9d057d6a91455084144bca960364736f6c63430008110033",
  "linkReferences": {},
  "deployedLinkReferences": {}
}